{
  "_format": "hh-sol-artifact-1",
  "contractName": "WavePortal",
  "sourceName": "contracts/WavePortal.sol",
  "abi": [
    {
      "inputs": [],
      "stateMutability": "payable",
      "type": "constructor"
    },
    {
      "anonymous": false,
      "inputs": [
        {
          "indexed": true,
          "internalType": "address",
          "name": "from",
          "type": "address"
        },
        {
          "indexed": false,
          "internalType": "uint256",
          "name": "timestamp",
          "type": "uint256"
        },
        {
          "indexed": false,
          "internalType": "string",
          "name": "message",
          "type": "string"
        }
      ],
      "name": "NewWave",
      "type": "event"
    },
    {
      "anonymous": false,
      "inputs": [
        {
          "indexed": false,
          "internalType": "address",
          "name": "",
          "type": "address"
        },
        {
          "indexed": false,
          "internalType": "uint256",
          "name": "",
          "type": "uint256"
        }
      ],
      "name": "Received",
      "type": "event"
    },
    {
      "inputs": [],
      "name": "getAllWaves",
      "outputs": [
        {
          "components": [
            {
              "internalType": "address",
              "name": "waver",
              "type": "address"
            },
            {
              "internalType": "string",
              "name": "message",
              "type": "string"
            },
            {
              "internalType": "uint256",
              "name": "timestamp",
              "type": "uint256"
            },
            {
              "internalType": "uint256",
              "name": "amount",
              "type": "uint256"
            }
          ],
          "internalType": "struct WavePortal.Wave[]",
          "name": "",
          "type": "tuple[]"
        }
      ],
      "stateMutability": "view",
      "type": "function"
    },
    {
      "inputs": [],
      "name": "getTotalWaves",
      "outputs": [
        {
          "internalType": "uint256",
          "name": "",
          "type": "uint256"
        }
      ],
      "stateMutability": "view",
      "type": "function"
    },
    {
      "inputs": [
        {
          "internalType": "address",
          "name": "",
          "type": "address"
        }
      ],
      "name": "lastWavedAt",
      "outputs": [
        {
          "internalType": "uint256",
          "name": "",
          "type": "uint256"
        }
      ],
      "stateMutability": "view",
      "type": "function"
    },
    {
      "inputs": [
        {
          "internalType": "address payable",
          "name": "_to",
          "type": "address"
        }
      ],
      "name": "sendViaCall",
      "outputs": [],
      "stateMutability": "payable",
      "type": "function"
    },
    {
      "inputs": [
        {
          "internalType": "string",
          "name": "_message",
          "type": "string"
        }
      ],
      "name": "wave",
      "outputs": [],
      "stateMutability": "payable",
      "type": "function"
    },
    {
      "inputs": [
        {
          "internalType": "string",
          "name": "_message",
          "type": "string"
        }
      ],
      "name": "wave1",
      "outputs": [],
      "stateMutability": "payable",
      "type": "function"
    },
    {
      "stateMutability": "payable",
      "type": "receive"
    }
  ],
  "bytecode": "0x60806040526200004a6040518060400160405280601c81526020017f2d736d61727420636f6e747261637420636f6e73747275637465642d000000008152506200005060201b60201c565b6200024a565b620000f081604051602401620000679190620001f7565b6040516020818303038152906040527f41304fac000000000000000000000000000000000000000000000000000000007bffffffffffffffffffffffffffffffffffffffffffffffffffffffff19166020820180517bffffffffffffffffffffffffffffffffffffffffffffffffffffffff8381831617835250505050620000f360201b60201c565b50565b6200011981620001146200011c60201b62000901176200013d60201b60201c565b60201c565b50565b60006a636f6e736f6c652e6c6f679050600080835160208501845afa505050565b6200015160201b62000b2117819050919050565b6200015b6200021b565b565b600081519050919050565b600082825260208201905092915050565b60005b83811015620001995780820151818401526020810190506200017c565b60008484015250505050565b6000601f19601f8301169050919050565b6000620001c3826200015d565b620001cf818562000168565b9350620001e181856020860162000179565b620001ec81620001a5565b840191505092915050565b60006020820190508181036000830152620002138184620001b6565b905092915050565b7f4e487b7100000000000000000000000000000000000000000000000000000000600052605160045260246000fd5b611703806200025a6000396000f3fe6080604052600436106100595760003560e01c80631e2c64041461009e578063449d46c0146100ba578063830c29ae146100d65780639a2cdc08146100f2578063a42a46631461011d578063bd43a9081461015a57610099565b36610099577f88a5966d370b9919b20f3e2c13ff65706f196a4e32cc2c12bf57088f88525874333460405161008f929190610b85565b60405180910390a1005b600080fd5b6100b860048036038101906100b39190610d08565b610185565b005b6100d460048036038101906100cf9190610d08565b6104d2565b005b6100f060048036038101906100eb9190610d8f565b610693565b005b3480156100fe57600080fd5b50610107610743565b6040516101149190610dbc565b60405180910390f35b34801561012957600080fd5b50610144600480360381019061013f9190610e03565b61078e565b6040516101519190610dbc565b60405180910390f35b34801561016657600080fd5b5061016f6107a6565b60405161017c9190610ff2565b60405180910390f35b42601e600260003373ffffffffffffffffffffffffffffffffffffffff1673ffffffffffffffffffffffffffffffffffffffff168152602001908152602001600020546101d29190611043565b10610212576040517f08c379a0000000000000000000000000000000000000000000000000000000008152600401610209906110d4565b60405180910390fd5b42600260003373ffffffffffffffffffffffffffffffffffffffff1673ffffffffffffffffffffffffffffffffffffffff1681526020019081526020016000208190555060016000808282546102689190611043565b925050819055506102af6040518060400160405280601481526020017f25732073656e742061206d6573736167652025730000000000000000000000008152503383610922565b600160405180608001604052803373ffffffffffffffffffffffffffffffffffffffff16815260200183815260200142815260200134815250908060018154018082558091505060019003906000526020600020906004020160009091909190915060008201518160000160006101000a81548173ffffffffffffffffffffffffffffffffffffffff021916908373ffffffffffffffffffffffffffffffffffffffff160217905550602082015181600101908161036d9190611300565b50604082015181600201556060820151816003015550503373ffffffffffffffffffffffffffffffffffffffff167f5f7e16dc676677766a70e9c5628aa6c54ddb8b6e5188e2ae1e1f17f1ffbea71642836040516103cc92919061140b565b60405180910390a2600064e8d4a51000905047811115610421576040517f08c379a000000000000000000000000000000000000000000000000000000000815260040161041890611487565b60405180910390fd5b60003373ffffffffffffffffffffffffffffffffffffffff1682604051610447906114d8565b60006040518083038185875af1925050503d8060008114610484576040519150601f19603f3d011682016040523d82523d6000602084013e610489565b606091505b50509050806104cd576040517f08c379a00000000000000000000000000000000000000000000000000000000081526004016104c49061155f565b60405180910390fd5b505050565b60016000808282546104e49190611043565b9250508190555061052b6040518060400160405280601e81526020017f2573206d616465206120646f6e6174696f6e206d6573736167653a20257300008152503383610922565b61056b6040518060400160405280601a81526020017f2573207472616e7366657272656420612076616c75653a20257300000000000081525033346109c1565b600160405180608001604052803373ffffffffffffffffffffffffffffffffffffffff16815260200183815260200142815260200134815250908060018154018082558091505060019003906000526020600020906004020160009091909190915060008201518160000160006101000a81548173ffffffffffffffffffffffffffffffffffffffff021916908373ffffffffffffffffffffffffffffffffffffffff16021790555060208201518160010190816106299190611300565b50604082015181600201556060820151816003015550503373ffffffffffffffffffffffffffffffffffffffff167f5f7e16dc676677766a70e9c5628aa6c54ddb8b6e5188e2ae1e1f17f1ffbea716428360405161068892919061140b565b60405180910390a250565b60008173ffffffffffffffffffffffffffffffffffffffff16346040516106b9906114d8565b60006040518083038185875af1925050503d80600081146106f6576040519150601f19603f3d011682016040523d82523d6000602084013e6106fb565b606091505b505090508061073f576040517f08c379a0000000000000000000000000000000000000000000000000000000008152600401610736906115cb565b60405180910390fd5b5050565b60006107866040518060400160405280600f81526020017f746f74616c2077617665733a2025640000000000000000000000000000000000815250600054610a60565b600054905090565b60026020528060005260406000206000915090505481565b60606001805480602002602001604051908101604052809291908181526020016000905b828210156108f857838290600052602060002090600402016040518060800160405290816000820160009054906101000a900473ffffffffffffffffffffffffffffffffffffffff1673ffffffffffffffffffffffffffffffffffffffff1673ffffffffffffffffffffffffffffffffffffffff16815260200160018201805461085390611123565b80601f016020809104026020016040519081016040528092919081815260200182805461087f90611123565b80156108cc5780601f106108a1576101008083540402835291602001916108cc565b820191906000526020600020905b8154815290600101906020018083116108af57829003601f168201915b5050505050815260200160028201548152602001600382015481525050815260200190600101906107ca565b50505050905090565b60006a636f6e736f6c652e6c6f679050600080835160208501845afa505050565b6109bc83838360405160240161093a939291906115eb565b6040516020818303038152906040527fe0e9ad4f000000000000000000000000000000000000000000000000000000007bffffffffffffffffffffffffffffffffffffffffffffffffffffffff19166020820180517bffffffffffffffffffffffffffffffffffffffffffffffffffffffff8381831617835250505050610afc565b505050565b610a5b8383836040516024016109d993929190611630565b6040516020818303038152906040527f0d26b925000000000000000000000000000000000000000000000000000000007bffffffffffffffffffffffffffffffffffffffffffffffffffffffff19166020820180517bffffffffffffffffffffffffffffffffffffffffffffffffffffffff8381831617835250505050610afc565b505050565b610af88282604051602401610a7692919061166e565b6040516020818303038152906040527fb60e72cc000000000000000000000000000000000000000000000000000000007bffffffffffffffffffffffffffffffffffffffffffffffffffffffff19166020820180517bffffffffffffffffffffffffffffffffffffffffffffffffffffffff8381831617835250505050610afc565b5050565b610b1381610b0b610901610b16565b63ffffffff16565b50565b610b21819050919050565b610b2961169e565b565b600073ffffffffffffffffffffffffffffffffffffffff82169050919050565b6000610b5682610b2b565b9050919050565b610b6681610b4b565b82525050565b6000819050919050565b610b7f81610b6c565b82525050565b6000604082019050610b9a6000830185610b5d565b610ba76020830184610b76565b9392505050565b6000604051905090565b600080fd5b600080fd5b600080fd5b600080fd5b6000601f19601f8301169050919050565b7f4e487b7100000000000000000000000000000000000000000000000000000000600052604160045260246000fd5b610c1582610bcc565b810181811067ffffffffffffffff82111715610c3457610c33610bdd565b5b80604052505050565b6000610c47610bae565b9050610c538282610c0c565b919050565b600067ffffffffffffffff821115610c7357610c72610bdd565b5b610c7c82610bcc565b9050602081019050919050565b82818337600083830152505050565b6000610cab610ca684610c58565b610c3d565b905082815260208101848484011115610cc757610cc6610bc7565b5b610cd2848285610c89565b509392505050565b600082601f830112610cef57610cee610bc2565b5b8135610cff848260208601610c98565b91505092915050565b600060208284031215610d1e57610d1d610bb8565b5b600082013567ffffffffffffffff811115610d3c57610d3b610bbd565b5b610d4884828501610cda565b91505092915050565b6000610d5c82610b2b565b9050919050565b610d6c81610d51565b8114610d7757600080fd5b50565b600081359050610d8981610d63565b92915050565b600060208284031215610da557610da4610bb8565b5b6000610db384828501610d7a565b91505092915050565b6000602082019050610dd16000830184610b76565b92915050565b610de081610b4b565b8114610deb57600080fd5b50565b600081359050610dfd81610dd7565b92915050565b600060208284031215610e1957610e18610bb8565b5b6000610e2784828501610dee565b91505092915050565b600081519050919050565b600082825260208201905092915050565b6000819050602082019050919050565b610e6581610b4b565b82525050565b600081519050919050565b600082825260208201905092915050565b60005b83811015610ea5578082015181840152602081019050610e8a565b60008484015250505050565b6000610ebc82610e6b565b610ec68185610e76565b9350610ed6818560208601610e87565b610edf81610bcc565b840191505092915050565b610ef381610b6c565b82525050565b6000608083016000830151610f116000860182610e5c565b5060208301518482036020860152610f298282610eb1565b9150506040830151610f3e6040860182610eea565b506060830151610f516060860182610eea565b508091505092915050565b6000610f688383610ef9565b905092915050565b6000602082019050919050565b6000610f8882610e30565b610f928185610e3b565b935083602082028501610fa485610e4c565b8060005b85811015610fe05784840389528151610fc18582610f5c565b9450610fcc83610f70565b925060208a01995050600181019050610fa8565b50829750879550505050505092915050565b6000602082019050818103600083015261100c8184610f7d565b905092915050565b7f4e487b7100000000000000000000000000000000000000000000000000000000600052601160045260246000fd5b600061104e82610b6c565b915061105983610b6c565b925082820190508082111561107157611070611014565b5b92915050565b600082825260208201905092915050565b7f5761697420333020736563730000000000000000000000000000000000000000600082015250565b60006110be600c83611077565b91506110c982611088565b602082019050919050565b600060208201905081810360008301526110ed816110b1565b9050919050565b7f4e487b7100000000000000000000000000000000000000000000000000000000600052602260045260246000fd5b6000600282049050600182168061113b57607f821691505b60208210810361114e5761114d6110f4565b5b50919050565b60008190508160005260206000209050919050565b60006020601f8301049050919050565b600082821b905092915050565b6000600883026111b67fffffffffffffffffffffffffffffffffffffffffffffffffffffffffffffffff82611179565b6111c08683611179565b95508019841693508086168417925050509392505050565b6000819050919050565b60006111fd6111f86111f384610b6c565b6111d8565b610b6c565b9050919050565b6000819050919050565b611217836111e2565b61122b61122382611204565b848454611186565b825550505050565b600090565b611240611233565b61124b81848461120e565b505050565b5b8181101561126f57611264600082611238565b600181019050611251565b5050565b601f8211156112b45761128581611154565b61128e84611169565b8101602085101561129d578190505b6112b16112a985611169565b830182611250565b50505b505050565b600082821c905092915050565b60006112d7600019846008026112b9565b1980831691505092915050565b60006112f083836112c6565b9150826002028217905092915050565b61130982610e6b565b67ffffffffffffffff81111561132257611321610bdd565b5b61132c8254611123565b611337828285611273565b600060209050601f83116001811461136a5760008415611358578287015190505b61136285826112e4565b8655506113ca565b601f19841661137886611154565b60005b828110156113a05784890151825560018201915060208501945060208101905061137b565b868310156113bd57848901516113b9601f8916826112c6565b8355505b6001600288020188555050505b505050505050565b60006113dd82610e6b565b6113e78185611077565b93506113f7818560208601610e87565b61140081610bcc565b840191505092915050565b60006040820190506114206000830185610b76565b818103602083015261143281846113d2565b90509392505050565b7f496e73756666696369656e742066756e6420666f7220746865207072697a6500600082015250565b6000611471601f83611077565b915061147c8261143b565b602082019050919050565b600060208201905081810360008301526114a081611464565b9050919050565b600081905092915050565b50565b60006114c26000836114a7565b91506114cd826114b2565b600082019050919050565b60006114e3826114b5565b9150819050919050565b7f4661696c656420746f207769746864726177206d6f6e65792066726f6d20636f60008201527f6e74726163742e00000000000000000000000000000000000000000000000000602082015250565b6000611549602783611077565b9150611554826114ed565b604082019050919050565b600060208201905081810360008301526115788161153c565b9050919050565b7f4661696c656420746f2073656e64204574686572000000000000000000000000600082015250565b60006115b5601483611077565b91506115c08261157f565b602082019050919050565b600060208201905081810360008301526115e4816115a8565b9050919050565b6000606082019050818103600083015261160581866113d2565b90506116146020830185610b5d565b818103604083015261162681846113d2565b9050949350505050565b6000606082019050818103600083015261164a81866113d2565b90506116596020830185610b5d565b6116666040830184610b76565b949350505050565b6000604082019050818103600083015261168881856113d2565b90506116976020830184610b76565b9392505050565b7f4e487b7100000000000000000000000000000000000000000000000000000000600052605160045260246000fdfea2646970667358221220c283c25af836ab2417299b62824185d114cd3a56af2ca2d915fffdae3f92943564736f6c63430008130033",
  "linkReferences": {},
  "deployedLinkReferences": {}
}