{
    "_format": "hh-sol-artifact-1",
    "contractName": "WavePortal",
    "sourceName": "contracts/WavePortal.sol",
    "abi": [
        {
            "inputs": [],
            "stateMutability": "payable",
            "type": "constructor"
        },
        {
            "anonymous": false,
            "inputs": [
                {
                    "indexed": true,
                    "internalType": "address",
                    "name": "from",
                    "type": "address"
                },
                {
                    "indexed": false,
                    "internalType": "uint256",
                    "name": "timestamp",
                    "type": "uint256"
                },
                {
                    "indexed": false,
                    "internalType": "string",
                    "name": "message",
                    "type": "string"
                }
            ],
            "name": "NewWave",
            "type": "event"
        },
        {
            "inputs": [],
            "name": "getAllWaves",
            "outputs": [
                {
                    "components": [
                        {
                            "internalType": "address",
                            "name": "waver",
                            "type": "address"
                        },
                        {
                            "internalType": "string",
                            "name": "message",
                            "type": "string"
                        },
                        {
                            "internalType": "uint256",
                            "name": "timestamp",
                            "type": "uint256"
                        }
                    ],
                    "internalType": "struct WavePortal.Wave[]",
                    "name": "",
                    "type": "tuple[]"
                }
            ],
            "stateMutability": "view",
            "type": "function"
        },
        {
            "inputs": [],
            "name": "getTotalWaves",
            "outputs": [
                {
                    "internalType": "uint256",
                    "name": "",
                    "type": "uint256"
                }
            ],
            "stateMutability": "view",
            "type": "function"
        },
        {
            "inputs": [
                {
                    "internalType": "string",
                    "name": "_message",
                    "type": "string"
                }
            ],
            "name": "wave",
            "outputs": [],
            "stateMutability": "nonpayable",
            "type": "function"
        }
    ],
    "bytecode": "0x60806040526200004a6040518060400160405280601c81526020017f2d736d61727420636f6e747261637420636f6e73747275637465642d000000008152506200005060201b60201c565b6200024a565b620000f081604051602401620000679190620001f7565b6040516020818303038152906040527f41304fac000000000000000000000000000000000000000000000000000000007bffffffffffffffffffffffffffffffffffffffffffffffffffffffff19166020820180517bffffffffffffffffffffffffffffffffffffffffffffffffffffffff8381831617835250505050620000f360201b60201c565b50565b6200011981620001146200011c60201b620004a6176200013d60201b60201c565b60201c565b50565b60006a636f6e736f6c652e6c6f679050600080835160208501845afa505050565b6200015160201b6200062717819050919050565b6200015b6200021b565b565b600081519050919050565b600082825260208201905092915050565b60005b83811015620001995780820151818401526020810190506200017c565b60008484015250505050565b6000601f19601f8301169050919050565b6000620001c3826200015d565b620001cf818562000168565b9350620001e181856020860162000179565b620001ec81620001a5565b840191505092915050565b60006020820190508181036000830152620002138184620001b6565b905092915050565b7f4e487b7100000000000000000000000000000000000000000000000000000000600052605160045260246000fd5b610ff3806200025a6000396000f3fe608060405234801561001057600080fd5b50600436106100415760003560e01c8063449d46c0146100465780639a2cdc0814610062578063bd43a90814610080575b600080fd5b610060600480360381019061005b919061078b565b61009e565b005b61006a61030a565b60405161007791906107ed565b60405180910390f35b610088610355565b60405161009591906109e9565b60405180910390f35b60016000808282546100b09190610a3a565b925050819055506100f76040518060400160405280601481526020017f25732073656e742061206d65737361676520257300000000000000000000000081525033836104c7565b600160405180606001604052803373ffffffffffffffffffffffffffffffffffffffff16815260200183815260200142815250908060018154018082558091505060019003906000526020600020906003020160009091909190915060008201518160000160006101000a81548173ffffffffffffffffffffffffffffffffffffffff021916908373ffffffffffffffffffffffffffffffffffffffff16021790555060208201518160010190816101af9190610c7a565b506040820151816002015550503373ffffffffffffffffffffffffffffffffffffffff167f5f7e16dc676677766a70e9c5628aa6c54ddb8b6e5188e2ae1e1f17f1ffbea7164283604051610204929190610d96565b60405180910390a2600064e8d4a51000905047811115610259576040517f08c379a000000000000000000000000000000000000000000000000000000000815260040161025090610e12565b60405180910390fd5b60003373ffffffffffffffffffffffffffffffffffffffff168260405161027f90610e63565b60006040518083038185875af1925050503d80600081146102bc576040519150601f19603f3d011682016040523d82523d6000602084013e6102c1565b606091505b5050905080610305576040517f08c379a00000000000000000000000000000000000000000000000000000000081526004016102fc90610eea565b60405180910390fd5b505050565b600061034d6040518060400160405280600f81526020017f746f74616c2077617665733a2025640000000000000000000000000000000000815250600054610566565b600054905090565b60606001805480602002602001604051908101604052809291908181526020016000905b8282101561049d57838290600052602060002090600302016040518060600160405290816000820160009054906101000a900473ffffffffffffffffffffffffffffffffffffffff1673ffffffffffffffffffffffffffffffffffffffff1673ffffffffffffffffffffffffffffffffffffffff16815260200160018201805461040290610a9d565b80601f016020809104026020016040519081016040528092919081815260200182805461042e90610a9d565b801561047b5780601f106104505761010080835404028352916020019161047b565b820191906000526020600020905b81548152906001019060200180831161045e57829003601f168201915b5050505050815260200160028201548152505081526020019060010190610379565b50505050905090565b60006a636f6e736f6c652e6c6f679050600080835160208501845afa505050565b6105618383836040516024016104df93929190610f19565b6040516020818303038152906040527fe0e9ad4f000000000000000000000000000000000000000000000000000000007bffffffffffffffffffffffffffffffffffffffffffffffffffffffff19166020820180517bffffffffffffffffffffffffffffffffffffffffffffffffffffffff8381831617835250505050610602565b505050565b6105fe828260405160240161057c929190610f5e565b6040516020818303038152906040527fb60e72cc000000000000000000000000000000000000000000000000000000007bffffffffffffffffffffffffffffffffffffffffffffffffffffffff19166020820180517bffffffffffffffffffffffffffffffffffffffffffffffffffffffff8381831617835250505050610602565b5050565b610619816106116104a661061c565b63ffffffff16565b50565b610627819050919050565b61062f610f8e565b565b6000604051905090565b600080fd5b600080fd5b600080fd5b600080fd5b6000601f19601f8301169050919050565b7f4e487b7100000000000000000000000000000000000000000000000000000000600052604160045260246000fd5b6106988261064f565b810181811067ffffffffffffffff821117156106b7576106b6610660565b5b80604052505050565b60006106ca610631565b90506106d6828261068f565b919050565b600067ffffffffffffffff8211156106f6576106f5610660565b5b6106ff8261064f565b9050602081019050919050565b82818337600083830152505050565b600061072e610729846106db565b6106c0565b90508281526020810184848401111561074a5761074961064a565b5b61075584828561070c565b509392505050565b600082601f83011261077257610771610645565b5b813561078284826020860161071b565b91505092915050565b6000602082840312156107a1576107a061063b565b5b600082013567ffffffffffffffff8111156107bf576107be610640565b5b6107cb8482850161075d565b91505092915050565b6000819050919050565b6107e7816107d4565b82525050565b600060208201905061080260008301846107de565b92915050565b600081519050919050565b600082825260208201905092915050565b6000819050602082019050919050565b600073ffffffffffffffffffffffffffffffffffffffff82169050919050565b600061085f82610834565b9050919050565b61086f81610854565b82525050565b600081519050919050565b600082825260208201905092915050565b60005b838110156108af578082015181840152602081019050610894565b60008484015250505050565b60006108c682610875565b6108d08185610880565b93506108e0818560208601610891565b6108e98161064f565b840191505092915050565b6108fd816107d4565b82525050565b600060608301600083015161091b6000860182610866565b506020830151848203602086015261093382826108bb565b915050604083015161094860408601826108f4565b508091505092915050565b600061095f8383610903565b905092915050565b6000602082019050919050565b600061097f82610808565b6109898185610813565b93508360208202850161099b85610824565b8060005b858110156109d757848403895281516109b88582610953565b94506109c383610967565b925060208a0199505060018101905061099f565b50829750879550505050505092915050565b60006020820190508181036000830152610a038184610974565b905092915050565b7f4e487b7100000000000000000000000000000000000000000000000000000000600052601160045260246000fd5b6000610a45826107d4565b9150610a50836107d4565b9250828201905080821115610a6857610a67610a0b565b5b92915050565b7f4e487b7100000000000000000000000000000000000000000000000000000000600052602260045260246000fd5b60006002820490506001821680610ab557607f821691505b602082108103610ac857610ac7610a6e565b5b50919050565b60008190508160005260206000209050919050565b60006020601f8301049050919050565b600082821b905092915050565b600060088302610b307fffffffffffffffffffffffffffffffffffffffffffffffffffffffffffffffff82610af3565b610b3a8683610af3565b95508019841693508086168417925050509392505050565b6000819050919050565b6000610b77610b72610b6d846107d4565b610b52565b6107d4565b9050919050565b6000819050919050565b610b9183610b5c565b610ba5610b9d82610b7e565b848454610b00565b825550505050565b600090565b610bba610bad565b610bc5818484610b88565b505050565b5b81811015610be957610bde600082610bb2565b600181019050610bcb565b5050565b601f821115610c2e57610bff81610ace565b610c0884610ae3565b81016020851015610c17578190505b610c2b610c2385610ae3565b830182610bca565b50505b505050565b600082821c905092915050565b6000610c5160001984600802610c33565b1980831691505092915050565b6000610c6a8383610c40565b9150826002028217905092915050565b610c8382610875565b67ffffffffffffffff811115610c9c57610c9b610660565b5b610ca68254610a9d565b610cb1828285610bed565b600060209050601f831160018114610ce45760008415610cd2578287015190505b610cdc8582610c5e565b865550610d44565b601f198416610cf286610ace565b60005b82811015610d1a57848901518255600182019150602085019450602081019050610cf5565b86831015610d375784890151610d33601f891682610c40565b8355505b6001600288020188555050505b505050505050565b600082825260208201905092915050565b6000610d6882610875565b610d728185610d4c565b9350610d82818560208601610891565b610d8b8161064f565b840191505092915050565b6000604082019050610dab60008301856107de565b8181036020830152610dbd8184610d5d565b90509392505050565b7f496e73756666696369656e742066756e6420666f7220746865207072697a6500600082015250565b6000610dfc601f83610d4c565b9150610e0782610dc6565b602082019050919050565b60006020820190508181036000830152610e2b81610def565b9050919050565b600081905092915050565b50565b6000610e4d600083610e32565b9150610e5882610e3d565b600082019050919050565b6000610e6e82610e40565b9150819050919050565b7f4661696c656420746f207769746864726177206d6f6e65792066726f6d20636f60008201527f6e74726163742e00000000000000000000000000000000000000000000000000602082015250565b6000610ed4602783610d4c565b9150610edf82610e78565b604082019050919050565b60006020820190508181036000830152610f0381610ec7565b9050919050565b610f1381610854565b82525050565b60006060820190508181036000830152610f338186610d5d565b9050610f426020830185610f0a565b8181036040830152610f548184610d5d565b9050949350505050565b60006040820190508181036000830152610f788185610d5d565b9050610f8760208301846107de565b9392505050565b7f4e487b7100000000000000000000000000000000000000000000000000000000600052605160045260246000fdfea264697066735822122094487bcafd848075c1b3e9975cc080b63f4a8eba6f5c9c780e09fdc24656636064736f6c63430008130033",
    "linkReferences": {},
    "deployedLinkReferences": {}
}