{
  "_format": "hh-sol-artifact-1",
  "contractName": "WavePortal",
  "sourceName": "contracts/WavePortal.sol",
  "abi": [
    {
      "inputs": [],
      "stateMutability": "payable",
      "type": "constructor"
    },
    {
      "anonymous": false,
      "inputs": [
        {
          "indexed": true,
          "internalType": "address",
          "name": "from",
          "type": "address"
        },
        {
          "indexed": false,
          "internalType": "uint256",
          "name": "timestamp",
          "type": "uint256"
        },
        {
          "indexed": false,
          "internalType": "string",
          "name": "message",
          "type": "string"
        }
      ],
      "name": "NewWave",
      "type": "event"
    },
    {
      "anonymous": false,
      "inputs": [
        {
          "indexed": false,
          "internalType": "address",
          "name": "",
          "type": "address"
        },
        {
          "indexed": false,
          "internalType": "uint256",
          "name": "",
          "type": "uint256"
        }
      ],
      "name": "Received",
      "type": "event"
    },
    {
      "inputs": [],
      "name": "deposit",
      "outputs": [],
      "stateMutability": "payable",
      "type": "function"
    },
    {
      "inputs": [],
      "name": "getAllWaves",
      "outputs": [
        {
          "components": [
            {
              "internalType": "address",
              "name": "waver",
              "type": "address"
            },
            {
              "internalType": "string",
              "name": "message",
              "type": "string"
            },
            {
              "internalType": "uint256",
              "name": "timestamp",
              "type": "uint256"
            },
            {
              "internalType": "uint256",
              "name": "amount",
              "type": "uint256"
            }
          ],
          "internalType": "struct WavePortal.Wave[]",
          "name": "",
          "type": "tuple[]"
        }
      ],
      "stateMutability": "view",
      "type": "function"
    },
    {
      "inputs": [],
      "name": "getTotalWaves",
      "outputs": [
        {
          "internalType": "uint256",
          "name": "",
          "type": "uint256"
        }
      ],
      "stateMutability": "view",
      "type": "function"
    },
    {
      "inputs": [
        {
          "internalType": "address",
          "name": "",
          "type": "address"
        }
      ],
      "name": "lastWavedAt",
      "outputs": [
        {
          "internalType": "uint256",
          "name": "",
          "type": "uint256"
        }
      ],
      "stateMutability": "view",
      "type": "function"
    },
    {
      "inputs": [
        {
          "internalType": "address payable",
          "name": "_to",
          "type": "address"
        }
      ],
      "name": "sendViaCall",
      "outputs": [],
      "stateMutability": "payable",
      "type": "function"
    },
    {
      "inputs": [
        {
          "internalType": "string",
          "name": "_message",
          "type": "string"
        }
      ],
      "name": "wave",
      "outputs": [],
      "stateMutability": "payable",
      "type": "function"
    },
    {
      "inputs": [
        {
          "internalType": "string",
          "name": "_message",
          "type": "string"
        }
      ],
      "name": "wave1",
      "outputs": [],
      "stateMutability": "payable",
      "type": "function"
    },
    {
      "stateMutability": "payable",
      "type": "receive"
    }
  ],
  "bytecode": "0x60806040526200004a6040518060400160405280601c81526020017f2d736d61727420636f6e747261637420636f6e73747275637465642d000000008152506200005060201b60201c565b6200024a565b620000f081604051602401620000679190620001f7565b6040516020818303038152906040527f41304fac000000000000000000000000000000000000000000000000000000007bffffffffffffffffffffffffffffffffffffffffffffffffffffffff19166020820180517bffffffffffffffffffffffffffffffffffffffffffffffffffffffff8381831617835250505050620000f360201b60201c565b50565b6200011981620001146200011c60201b62000a82176200013d60201b60201c565b60201c565b50565b60006a636f6e736f6c652e6c6f679050600080835160208501845afa505050565b6200015160201b62000ca217819050919050565b6200015b6200021b565b565b600081519050919050565b600082825260208201905092915050565b60005b83811015620001995780820151818401526020810190506200017c565b60008484015250505050565b6000601f19601f8301169050919050565b6000620001c3826200015d565b620001cf818562000168565b9350620001e181856020860162000179565b620001ec81620001a5565b840191505092915050565b60006020820190508181036000830152620002138184620001b6565b905092915050565b7f4e487b7100000000000000000000000000000000000000000000000000000000600052605160045260246000fd5b6119c8806200025a6000396000f3fe6080604052600436106100745760003560e01c80639a2cdc081161004e5780639a2cdc081461010d578063a42a466314610138578063bd43a90814610175578063d0e30db0146101a0576100b4565b80631e2c6404146100b9578063449d46c0146100d5578063830c29ae146100f1576100b4565b366100b4577f88a5966d370b9919b20f3e2c13ff65706f196a4e32cc2c12bf57088f8852587433346040516100aa929190610d06565b60405180910390a1005b600080fd5b6100d360048036038101906100ce9190610e89565b6101aa565b005b6100ef60048036038101906100ea9190610e89565b6104f7565b005b61010b60048036038101906101069190610f10565b6107ca565b005b34801561011957600080fd5b5061012261087a565b60405161012f9190610f3d565b60405180910390f35b34801561014457600080fd5b5061015f600480360381019061015a9190610f84565b6108c5565b60405161016c9190610f3d565b60405180910390f35b34801561018157600080fd5b5061018a6108dd565b6040516101979190611173565b60405180910390f35b6101a8610a38565b005b42601e600260003373ffffffffffffffffffffffffffffffffffffffff1673ffffffffffffffffffffffffffffffffffffffff168152602001908152602001600020546101f791906111c4565b10610237576040517f08c379a000000000000000000000000000000000000000000000000000000000815260040161022e90611255565b60405180910390fd5b42600260003373ffffffffffffffffffffffffffffffffffffffff1673ffffffffffffffffffffffffffffffffffffffff16815260200190815260200160002081905550600160008082825461028d91906111c4565b925050819055506102d46040518060400160405280601481526020017f25732073656e742061206d6573736167652025730000000000000000000000008152503383610aa3565b600160405180608001604052803373ffffffffffffffffffffffffffffffffffffffff16815260200183815260200142815260200134815250908060018154018082558091505060019003906000526020600020906004020160009091909190915060008201518160000160006101000a81548173ffffffffffffffffffffffffffffffffffffffff021916908373ffffffffffffffffffffffffffffffffffffffff16021790555060208201518160010190816103929190611481565b50604082015181600201556060820151816003015550503373ffffffffffffffffffffffffffffffffffffffff167f5f7e16dc676677766a70e9c5628aa6c54ddb8b6e5188e2ae1e1f17f1ffbea71642836040516103f192919061158c565b60405180910390a2600064e8d4a51000905047811115610446576040517f08c379a000000000000000000000000000000000000000000000000000000000815260040161043d90611608565b60405180910390fd5b60003373ffffffffffffffffffffffffffffffffffffffff168260405161046c90611659565b60006040518083038185875af1925050503d80600081146104a9576040519150601f19603f3d011682016040523d82523d6000602084013e6104ae565b606091505b50509050806104f2576040517f08c379a00000000000000000000000000000000000000000000000000000000081526004016104e9906116e0565b60405180910390fd5b505050565b600160008082825461050991906111c4565b925050819055506105506040518060400160405280601e81526020017f2573206d616465206120646f6e6174696f6e206d6573736167653a20257300008152503383610aa3565b6105906040518060400160405280601a81526020017f2573207472616e7366657272656420612076616c75653a2025730000000000008152503334610b42565b600160405180608001604052803373ffffffffffffffffffffffffffffffffffffffff16815260200183815260200142815260200134815250908060018154018082558091505060019003906000526020600020906004020160009091909190915060008201518160000160006101000a81548173ffffffffffffffffffffffffffffffffffffffff021916908373ffffffffffffffffffffffffffffffffffffffff160217905550602082015181600101908161064e9190611481565b50604082015181600201556060820151816003015550503373ffffffffffffffffffffffffffffffffffffffff167f5f7e16dc676677766a70e9c5628aa6c54ddb8b6e5188e2ae1e1f17f1ffbea71642836040516106ad92919061158c565b60405180910390a2600064e8d4a5100090503373ffffffffffffffffffffffffffffffffffffffff1631811115610719576040517f08c379a00000000000000000000000000000000000000000000000000000000081526004016107109061174c565b60405180910390fd5b60003073ffffffffffffffffffffffffffffffffffffffff168260405161073f90611659565b60006040518083038185875af1925050503d806000811461077c576040519150601f19603f3d011682016040523d82523d6000602084013e610781565b606091505b50509050806107c5576040517f08c379a00000000000000000000000000000000000000000000000000000000081526004016107bc906117b8565b60405180910390fd5b505050565b60008173ffffffffffffffffffffffffffffffffffffffff16346040516107f090611659565b60006040518083038185875af1925050503d806000811461082d576040519150601f19603f3d011682016040523d82523d6000602084013e610832565b606091505b5050905080610876576040517f08c379a000000000000000000000000000000000000000000000000000000000815260040161086d90611824565b60405180910390fd5b5050565b60006108bd6040518060400160405280600f81526020017f746f74616c2077617665733a2025640000000000000000000000000000000000815250600054610be1565b600054905090565b60026020528060005260406000206000915090505481565b60606001805480602002602001604051908101604052809291908181526020016000905b82821015610a2f57838290600052602060002090600402016040518060800160405290816000820160009054906101000a900473ffffffffffffffffffffffffffffffffffffffff1673ffffffffffffffffffffffffffffffffffffffff1673ffffffffffffffffffffffffffffffffffffffff16815260200160018201805461098a906112a4565b80601f01602080910402602001604051908101604052809291908181526020018280546109b6906112a4565b8015610a035780601f106109d857610100808354040283529160200191610a03565b820191906000526020600020905b8154815290600101906020018083116109e657829003601f168201915b505050505081526020016002820154815260200160038201548152505081526020019060010190610901565b50505050905090565b6501d1a94a20003414610a80576040517f08c379a0000000000000000000000000000000000000000000000000000000008152600401610a7790611890565b60405180910390fd5b565b60006a636f6e736f6c652e6c6f679050600080835160208501845afa505050565b610b3d838383604051602401610abb939291906118b0565b6040516020818303038152906040527fe0e9ad4f000000000000000000000000000000000000000000000000000000007bffffffffffffffffffffffffffffffffffffffffffffffffffffffff19166020820180517bffffffffffffffffffffffffffffffffffffffffffffffffffffffff8381831617835250505050610c7d565b505050565b610bdc838383604051602401610b5a939291906118f5565b6040516020818303038152906040527f0d26b925000000000000000000000000000000000000000000000000000000007bffffffffffffffffffffffffffffffffffffffffffffffffffffffff19166020820180517bffffffffffffffffffffffffffffffffffffffffffffffffffffffff8381831617835250505050610c7d565b505050565b610c798282604051602401610bf7929190611933565b6040516020818303038152906040527fb60e72cc000000000000000000000000000000000000000000000000000000007bffffffffffffffffffffffffffffffffffffffffffffffffffffffff19166020820180517bffffffffffffffffffffffffffffffffffffffffffffffffffffffff8381831617835250505050610c7d565b5050565b610c9481610c8c610a82610c97565b63ffffffff16565b50565b610ca2819050919050565b610caa611963565b565b600073ffffffffffffffffffffffffffffffffffffffff82169050919050565b6000610cd782610cac565b9050919050565b610ce781610ccc565b82525050565b6000819050919050565b610d0081610ced565b82525050565b6000604082019050610d1b6000830185610cde565b610d286020830184610cf7565b9392505050565b6000604051905090565b600080fd5b600080fd5b600080fd5b600080fd5b6000601f19601f8301169050919050565b7f4e487b7100000000000000000000000000000000000000000000000000000000600052604160045260246000fd5b610d9682610d4d565b810181811067ffffffffffffffff82111715610db557610db4610d5e565b5b80604052505050565b6000610dc8610d2f565b9050610dd48282610d8d565b919050565b600067ffffffffffffffff821115610df457610df3610d5e565b5b610dfd82610d4d565b9050602081019050919050565b82818337600083830152505050565b6000610e2c610e2784610dd9565b610dbe565b905082815260208101848484011115610e4857610e47610d48565b5b610e53848285610e0a565b509392505050565b600082601f830112610e7057610e6f610d43565b5b8135610e80848260208601610e19565b91505092915050565b600060208284031215610e9f57610e9e610d39565b5b600082013567ffffffffffffffff811115610ebd57610ebc610d3e565b5b610ec984828501610e5b565b91505092915050565b6000610edd82610cac565b9050919050565b610eed81610ed2565b8114610ef857600080fd5b50565b600081359050610f0a81610ee4565b92915050565b600060208284031215610f2657610f25610d39565b5b6000610f3484828501610efb565b91505092915050565b6000602082019050610f526000830184610cf7565b92915050565b610f6181610ccc565b8114610f6c57600080fd5b50565b600081359050610f7e81610f58565b92915050565b600060208284031215610f9a57610f99610d39565b5b6000610fa884828501610f6f565b91505092915050565b600081519050919050565b600082825260208201905092915050565b6000819050602082019050919050565b610fe681610ccc565b82525050565b600081519050919050565b600082825260208201905092915050565b60005b8381101561102657808201518184015260208101905061100b565b60008484015250505050565b600061103d82610fec565b6110478185610ff7565b9350611057818560208601611008565b61106081610d4d565b840191505092915050565b61107481610ced565b82525050565b60006080830160008301516110926000860182610fdd565b50602083015184820360208601526110aa8282611032565b91505060408301516110bf604086018261106b565b5060608301516110d2606086018261106b565b508091505092915050565b60006110e9838361107a565b905092915050565b6000602082019050919050565b600061110982610fb1565b6111138185610fbc565b93508360208202850161112585610fcd565b8060005b85811015611161578484038952815161114285826110dd565b945061114d836110f1565b925060208a01995050600181019050611129565b50829750879550505050505092915050565b6000602082019050818103600083015261118d81846110fe565b905092915050565b7f4e487b7100000000000000000000000000000000000000000000000000000000600052601160045260246000fd5b60006111cf82610ced565b91506111da83610ced565b92508282019050808211156111f2576111f1611195565b5b92915050565b600082825260208201905092915050565b7f5761697420333020736563730000000000000000000000000000000000000000600082015250565b600061123f600c836111f8565b915061124a82611209565b602082019050919050565b6000602082019050818103600083015261126e81611232565b9050919050565b7f4e487b7100000000000000000000000000000000000000000000000000000000600052602260045260246000fd5b600060028204905060018216806112bc57607f821691505b6020821081036112cf576112ce611275565b5b50919050565b60008190508160005260206000209050919050565b60006020601f8301049050919050565b600082821b905092915050565b6000600883026113377fffffffffffffffffffffffffffffffffffffffffffffffffffffffffffffffff826112fa565b61134186836112fa565b95508019841693508086168417925050509392505050565b6000819050919050565b600061137e61137961137484610ced565b611359565b610ced565b9050919050565b6000819050919050565b61139883611363565b6113ac6113a482611385565b848454611307565b825550505050565b600090565b6113c16113b4565b6113cc81848461138f565b505050565b5b818110156113f0576113e56000826113b9565b6001810190506113d2565b5050565b601f82111561143557611406816112d5565b61140f846112ea565b8101602085101561141e578190505b61143261142a856112ea565b8301826113d1565b50505b505050565b600082821c905092915050565b60006114586000198460080261143a565b1980831691505092915050565b60006114718383611447565b9150826002028217905092915050565b61148a82610fec565b67ffffffffffffffff8111156114a3576114a2610d5e565b5b6114ad82546112a4565b6114b88282856113f4565b600060209050601f8311600181146114eb57600084156114d9578287015190505b6114e38582611465565b86555061154b565b601f1984166114f9866112d5565b60005b82811015611521578489015182556001820191506020850194506020810190506114fc565b8683101561153e578489015161153a601f891682611447565b8355505b6001600288020188555050505b505050505050565b600061155e82610fec565b61156881856111f8565b9350611578818560208601611008565b61158181610d4d565b840191505092915050565b60006040820190506115a16000830185610cf7565b81810360208301526115b38184611553565b90509392505050565b7f496e73756666696369656e742066756e6420666f7220746865207072697a6500600082015250565b60006115f2601f836111f8565b91506115fd826115bc565b602082019050919050565b60006020820190508181036000830152611621816115e5565b9050919050565b600081905092915050565b50565b6000611643600083611628565b915061164e82611633565b600082019050919050565b600061166482611636565b9150819050919050565b7f4661696c656420746f207769746864726177206d6f6e65792066726f6d20636f60008201527f6e74726163742e00000000000000000000000000000000000000000000000000602082015250565b60006116ca6027836111f8565b91506116d58261166e565b604082019050919050565b600060208201905081810360008301526116f9816116bd565b9050919050565b7f496e73756666696369656e742066756e64000000000000000000000000000000600082015250565b60006117366011836111f8565b915061174182611700565b602082019050919050565b6000602082019050818103600083015261176581611729565b9050919050565b7f4661696c656420746f20646f6e61746520457468657200000000000000000000600082015250565b60006117a26016836111f8565b91506117ad8261176c565b602082019050919050565b600060208201905081810360008301526117d181611795565b9050919050565b7f4661696c656420746f2073656e64204574686572000000000000000000000000600082015250565b600061180e6014836111f8565b9150611819826117d8565b602082019050919050565b6000602082019050818103600083015261183d81611801565b9050919050565b7f706c656173652073656e64203030303030322065746865720000000000000000600082015250565b600061187a6018836111f8565b915061188582611844565b602082019050919050565b600060208201905081810360008301526118a98161186d565b9050919050565b600060608201905081810360008301526118ca8186611553565b90506118d96020830185610cde565b81810360408301526118eb8184611553565b9050949350505050565b6000606082019050818103600083015261190f8186611553565b905061191e6020830185610cde565b61192b6040830184610cf7565b949350505050565b6000604082019050818103600083015261194d8185611553565b905061195c6020830184610cf7565b9392505050565b7f4e487b7100000000000000000000000000000000000000000000000000000000600052605160045260246000fdfea26469706673582212205635462026380ef9b885c287a643dbbe8ca08e2b486bf1c9446e4bbbb817467964736f6c63430008130033",
  "linkReferences": {},
  "deployedLinkReferences": {}
}